:020000040800F2
:10000000180F002031040008390400087D3A000868
:100010003D0400083F0400084104000800000000FF
:100020000000000000000000000000004304000881
:10003000450400080000000047040008216400088F
:100040004B0400084B0400084B0400084B04000854
:100050004B0400084B0400084B0400084B04000844
:100060004B0400084B0400084B0400084B04000834
:100070004B0400084B0400084B0400084B04000824
:100080004B04000800000000FB0C00084B040008B3
:100090004B0400084B0400084B0400084B04000804
:1000A00005650008496500084B0400084B0400087A
:1000B0004B0400084B0400084B0400084B040008E4
:1000C0004B0400084B0400084B0400084B040008D4
:1000D0004B0400084B040008D97D00084B040008BD
:1000E000D10D00084B0400084B0400084B04000825
:1000F0004B0400084B0400084B04000800000000FB
:10010000000000004B040008000000004B04000841
:100110004B040008000000004B0400084B040008DA
:100120004B0400084B0400084B0400084B04000873
:100130004B04000800000000000000004B04000811
:100140004B0400084B040008000000000000000001
:10015000000000000000000000000000000000009F
:100160000000000000000000000000004B04000838
:100170004B04000800000000000000000000000028
:10018000000000004B040008000000000000000018
:10019000000000000000000000000000000000005F
:1001A00000000000000000004B0400084B040008A1
:1001B0004B0400084B0400084B040008000000003A
:1001C000000000004B0400080000000000000000D8
:1001D0004B0400084B040008DFF80CD000F050FD81
:1001E00000480047B9800008180F00200146002091
:1001F00091F8582091F849108A4228BF0120704791
:100200002DE9F04FB0F92E300446826EC3EBC330B7
:1002100093B08242C8BFA06605DCA3EBC33C944503
:10022000A8BFC4F868C0B4F81EC1A76EE56E47FA4F
:100230000CF212B28542DCBFA3EBC330A842ACBFC4
:10024000E066E06E069040FA0CF0B4F92CC003B200
:10025000266ECCEBCC308642C8BF206604DCACEB0B
:10026000CC35B542A8BF2566656E854203DCACEB94
:10027000CC30854200DC606694F81C01D4F86090B4
:10028000B1F804C049FA00F8A8EB0C06B1F806C0B2
:10029000B1F808B0B1F900A0B1F90210656E0BFB1E
:1002A00001F14FEA214ECDF830E045FA00F0B4F804
:1002B00020E0A0EB0C0C0BFB0AFA1EFB08F1B4F8D3
:1002C00022B0A9EB01011BFB06F8CDF83CB0B4F855
:1002D00028B041441BFB1AF8CDF838B0B4F824908C
:1002E000414419FB02F8A1EB08010391B4F8268000
:1002F00018FB06F107EB010B94F83270B4F92A6091
:1003000043FA07F106FB01FAB4F90E100AFB01BA31
:100310001EFB00F0DDF83CB0281A1BFB0CF5DDF8E5
:1003200030E0DDF838B028441BFB0EF5284419FBFB
:1003300003F5451B18FB0CF0DDF818C0A4F870207D
:10034000604442FA07FC06FB0CFC01FB1C06A4F807
:10035000723094F92401002838D000BF12FB00F756
:1003600013FB00F0C0F10008B4F9040003F08AFDAB
:1003700010FB27F110FB08F040F3CF3041F3CF31F1
:10038000411A04F1340004F031FB208294F8F41097
:1003900094F80E21491CC9B28A4208BF002104EB1F
:1003A0004102B2F874C0A4F80CC1A2F8740084F839
:1003B000F410A188084400B2A0800399C4F868A092
:1003C000C4E91815E66613B0BDE8F08F0029ACBF8C
:1003D00001204FF0FF30C1E710B490F8F4C090F85E
:1003E0000F110CF0FF0300EB430390F80E21B3F95B
:1003F0007430D0F80841511A234408BFB0F90C11E9
:1004000007D061449142A8BF891A00EB4101B1F9BC
:10041000741090F82021591A41FA02F2C281C0F8F2
:10042000081110BC70470021343004F0D6BA000027
:100430000648804706480047FEE7FEE7FEE7FEE77E
:10044000FEE7FEE7FEE7FEE7FEE7FEE7E9640008F9
:10045000D901000830B400F10C046830029D2EC0B0
:100460004FF0000C00F824CC00F823CC614678381B
:1004700004E0A4680CF1010202F0FF0C002C18BF8C
:10048000BCF1050FF5D30CEB4C0200EB820291603E
:1004900080F848C00188642251434FF47A72B1FB5E
:1004A000F2F180F8561030BC70472DE9F047044651
:1004B0000026D4E91A89C18080F8556080F8586018
:1004C00080F8536000F10C0580F854600F464846F0
:1004D00007F05AFD0021404605F0E7FE608810FB5A
:1004E00007F001B2484607F0ABFD00221146404636
:1004F00005F05CFE2A88A88810FB07F001B2404690
:1005000005F054FE2A88688810FB07F001B24846BF
:1005100007F058FD2888218848434FF47A71B0FBD2
:10052000F1F0401CA080A868A06084F85760BDE886
:10053000F0872DE9F05F044680884FF0010A00251E
:10054000D34600287ED0401EA08094F8580030B9D1
:1005500094F855000028206F06D041688847A0888D
:1005600000286FD000F0E3B8C16879B194F8571053
:10057000491CC9B284F8571094F85620914205D905
:10058000C168884784F8535084F85750206F016938
:100590008847002808BF84F8535006D094F85300C9
:1005A0007F283CBF401C84F85300206FC16800299D
:1005B00094F8531005D094F85620B1EB520F02D0A6
:1005C000CDE77F29CBD1006805F077FD060048BF55
:1005D00070420FFA80F8B4F90600002802DD002E00
:1005E00002DD04E0002E02DB84F85350B7E7B4F8D4
:1005F0004A101FFA88F0884205D9206F4168884761
:1006000084F855B0ABE7B4F84C108842A7D94FF046
:1006100000094F46E06E07F0D1FC206F81688847E3
:10062000A068002808BFA58072D0B0F9020040453C
:1006300012DAA168886858B3B1F90290B1F9047070
:10064000A06000E025E094F85810491C84F8581088
:10065000B0F902004045ECDBA068B0F90210B0F937
:100660000400A1EB0901C01B704390FBF1F007FAF5
:1006700080F0E18811FB00F001B20022A06E05F0CD
:1006800095FDA4F804B004F15C00A06006203BE0F6
:10069000A580A068D8B394F8580010B101280BD0F9
:1006A0000FE0606F04F02FFB84F854B0606F04F02B
:1006B0002EFB84F8535004E0606F04F026FB84F8AE
:1006C0005450A068E288818811FB02F1028809B2C7
:1006D000A06E05F06BFDA068E288418811FB02F175
:1006E000028809B2E06E07F06DFCA16822880888D4
:1006F00050434FF47A72B0FBF2F0401CA08088683F
:10070000A06094F85800401C84F858000FE0FFE700
:1007100094F8481094F85800491E884208BF4FF0DA
:10072000000A04D0072804BF84F85850A58050461A
:10073000BDE8F09F70B504468088012520B1401EB9
:100740000004000CA08028D1A068002808BF002564
:1007500023D08188E28811FB02F1028809B2A06EE1
:1007600005F024FDA068E288418811FB02F10288AF
:1007700009B2E06E07F026FCA16822880888504381
:100780004FF47A72B0FBF2F0401CA0808868A06041
:1007900094F85800401C84F85800284670BD014663
:1007A00000208968002908BF0120704710B500218A
:1007B000C46E81608180204605F07FFC01462046A2
:1007C000BDE81040002207F0FDBB01EB410100EB4A
:1007D00081008281704701EB410100EB8100C28101
:1007E000704701EB410100EB81000282704701EB91
:1007F000410100EB81008089704701EB410100EB72
:100800008100B0F90E00704701EB410100EB81005F
:10081000B0F91000704790F84800704790F8540005
:100820007047000030B40023036643668366C366E6
:100830008380C38180F8F63080F8F73080F8F83094
:1008400080F8F930C0F8FC30C0F80031C0F8083149
:1008500080F8223180F8233190F80EC1BCF1000FEE
:1008600015D000221CF001011CBFA0F87430012239
:1008700061450CDA00EB4204521CA4F8743000EB22
:100880004204891C521CA4F874306145F2DB80F8E4
:10089000F430A0F80C31002130BC343004F09DB8A5
:1008A00070B5044690F8160184F8F600012084F82B
:1008B000040100256586B4F92E30BF4991FBF3F1A0
:1008C00009B249B1628E01EBD17102F10102491006
:1008D0004FEA40006286F5D1208613FB00F042F615
:1008E000BE0190FBF1F060852046FFF79BFF04F10D
:1008F000340004F068F8658270BD70472DE9F0039C
:10090000002690F80E213546B046B44637463446A8
:100910003346002A09D900BF00EB43095B1CB9F933
:100920007490DBB24E449A42F6D896FBF2F600235E
:10093000002A0BD900EB43095B1CB9F97490DBB2B8
:10094000A9EB060909FB09559A42F3D895FBF2F386
:10095000B0F8105106FB06F26A43D51702EB556258
:10096000D2119342B8BF0127428B837872435A4316
:10097000C36992FBF3F2437892FBF3F20A8082811F
:1009800080F8F57090F80431012B18BF012420D0B5
:1009900090F8F820002A4CD0624217424FF0000233
:1009A00011D190F8F7305B1CDBB280F8F73090F88B
:1009B00017C163453DD380F8F720C1780170BDE8C9
:1009C000F0030020704780F8F720BDE8F00305F041
:1009D00087BB002AB8BF5242B0F81A31934223DDD8
:1009E000B0F8703013FB03FCB0F8723013FB03C88F
:1009F000B0F91430C2EBC23292FBF3F290F8193125
:100A000053434FEAE37C03EB9C639B1103FB02FC23
:100A10004FEAEC720CEB926290F81831921102FBE3
:100A200013C29045C8BF012480F8F940C0E93F8C4B
:100A3000AEE7BDE8F00305F053BBF0B490F8232116
:100A40000024012A08BFB0F90C1090F822210023DD
:100A50000125012A38D0B0F90C2012FB01FCBCF1B1
:100A6000000F38DD002ABCBF524212B20029BCBFC1
:100A7000494209B290F812C11CFB01FC4FEAEC7626
:100A80000CEB167C90F813614CF30F1C16FB01F174
:100A9000CE1701EB167190F8F56041F30F11012E9E
:100AA00017D1B0F8147196B2BE4212D98A42A8BFCB
:100AB00094450EDB90F8F610491CC9B280F8F61088
:100AC00090F81621914206D380F8F8500124037063
:100AD00001E080F8F6302046F0BC70470146B0F8DF
:100AE0007020B1F8721062F30F0061F31F4070477D
:100AF00090F81C21036E406E134163F30F01104107
:100B000060F31F4108467047438C0B80C08C1080F7
:100B100070474184C284704770B5044615460E463E
:100B2000343003F04BFF308004F1340003F041FF18
:100B3000288070BD70B504461546343003F053FF6D
:100B4000294604F13400BDE8704003F04ABF704705
:100B500000680021343003F040BF70B504461546EC
:100B60000E46343003F028FF00FB06F104F1340098
:100B700003F033FFA58070BDD0F800017047D0F8B6
:100B8000FC00704780F80411704790F8F900704736
:100B9000006890F8F50070470068012180F8221184
:100BA00070470068012180F823117047A0F81411E4
:100BB000704780F8241170475EEA0F002DE9F05F5E
:100BC0000546002092469B468846064681464024BC
:100BD0001BE0284641464746224600F041F853466E
:100BE0005A46C01A914110D311461846224600F0C9
:100BF00028F82D1A67EB01084F46224601200021F4
:100C000000F01FF817EB00094E41201EA4F101046B
:100C1000DFDC484631462A464346BDE8F09FD2B263
:100C200001E000F8012B491EFBD270470022F6E7D5
:100C300010B513460A4604461946FFF7F0FF204652
:100C400010BD202A04DB203A00FA02F10020704790
:100C50009140C2F1200320FA03F3194390407047FA
:100C6000202A04DB203A21FA02F00021704721FA01
:100C700002F3D040C2F12002914008431946704768
:100C8000064C074D06E0E06840F0010394E80700D9
:100C900098471034AC42F6D3FFF7A2FAEC8800086C
:100CA0000C89000870B58C1810F8015B15F007036B
:100CB00001D110F8013B2A1106D110F8012B03E0F5
:100CC00010F8016B01F8016B5B1EF9D12B0705D4FD
:100CD0000023521E0DD401F8013BFAE710F8013B46
:100CE000CB1A921C03E013F8015B01F8015B521E62
:100CF000F9D5A142D8D3002070BD10B54FF0A04166
:100D00004020086005F064FDBDE8104006F00CBB13
:100D100010B4024608460FFA81FC1CFB0CF40B14BD
:100D200013FB0341148864438C4224BF10BC7047FA
:100D300092F8B240C4EB1161C9B202EB41018A885A
:100D400010BC0CFB02F14FEAE17C01EB5C41C913E2
:100D500061F30F0003FB02F1CA1701EB5241C91303
:100D600061F31F407047000010B590F83010094C37
:100D7000002206F04DFB210101FA80F106480268CD
:100D80006FF30F1211430160606840F00100606072
:100D900010BD0000000800500C080050084490F8F6
:100DA0003000704700EB4100B0F93200704700009E
:100DB0000248016841F001010160704700080050DD
:100DC000084480F83020704700EB410042867047AD
:100DD0000548016811F4005F08BF70474FF40051E7
:100DE000016006F00BBE000014040140002190B128
:100DF0004378017800221944002B09D900EB020C3A
:100E0000521C9CF802C0D2B2614489B29342F5D818
:100E100001EB1120C1B208467047002141820175E3
:100E2000417580F8961080F8971080F8981080F837
:100E3000991080F89A1080F81B1180F81C1180F826
:100E40001D117047DDF800C0002818BF80E80E10A3
:100E50007047000000EB400101EB001210B508499B
:100E600001EB420494F82410002918BF10BD054975
:100E700051F8200005F064F9E083208210BD0000E5
:100E80006C0900201807002010B5044600EB440050
:100E900000EB04121248002100EB420211481160DD
:100EA0005160D1601161D183C2F81610C2F81A10D6
:100EB000118450F8240003F090FD0B48002150F8F5
:100EC000240003F08AFD094850F8240005F066F973
:100ED000074850F82400BDE8104003F014BF00009C
:100EE0006C0900202007002024070020180700209C
:100EF00030070020704700002DE9F00782B0002382
:100F0000009390F858409C461A46012C01BF0220DD
:100F100002B0BDE8F0077047012480F858404669E8
:100F2000FD4D002E1CBF0E6A012E02D0876EDFB170
:100F300029E04A68092A3BD18A6A4FF47856002A88
:100F400004BF0A6806EA524207D00F6802F07C022A
:100F500006EA57463243CE6A32430668F76C3D4094
:100F60001543F564426623E0C0E919C68A6A002A7F
:100F700004BF0A6A521E06D00E6A02F07C02761E78
:100F80003243CE6A32430E680F79C6F3846607F0A7
:100F90001F07BE403243866E761E8666476E47EA5E
:100FA0000202426604D10668F76C3D402A43F264AF
:100FB0000268956815F0080F0AD191F82550B5B16F
:100FC000D56891F8266025F4401545EA4655D56068
:100FD000026895689668C5F38005C6F3C00655EAB1
:100FE00006074FF004054FF007060CD07DE091F89E
:100FF000265091F824606D0545EA0655D66826F41A
:1010000040163543E3E78F6A002F1CBFCF6A002FDD
:1010100091F8257073D0012F1CBFD76827F0007797
:1010200077D0D76091F83020012A79D0026817690B
:1010300027F0020717618A68B2F1004F7DD0D1F81E
:101040000080076805EAD8594F44D7F81490C8F3D0
:10105000045806FA08FA29EA0A0902FA08F249EAE3
:1010600002027A610268576927F0004757610268F7
:101070004F69D2F80C80C8F3C1084FEA480807FA54
:1010800008F80F69042F72D002EB8702D1F80090A4
:10109000176EDFF888A209F0F84907EA0A0749EA5B
:1010A000080847EA080747F000471766D0F80080AD
:1010B0000A698F6908EB8202D2F8608028F0807894
:1010C00048EA070717660F7FD0F800800A69012FEA
:1010D0000CBF4FF00077002708EB8202D2F8608047
:1010E00028F0007848EA070717660268976817F043
:1010F000010F40F07181C9E001E00AE010E0012F2A
:10110000D7680EBF47F0007727F00077D76089D106
:1011100087E7C26D42F02002C265012382E70CE03E
:10112000D1E90D2717430268D2F8108028F4FF7820
:1011300048F0020847EA08077CE70F68026805EAFA
:10114000D7594A444FF00008D2F81490C7F3045717
:1011500006FA07FA29EA0A0908FA07F749EA070727
:1011600057610268576947F000477FE7FFE7176E4E
:1011700000277F037F0B7CD0176E07F0F84797FAA4
:10118000A7F7B7FA87F80F68C7F31209B9F1000F8C
:101190000EBFC7F3846797FAA7F7B7FA87F7B84582
:1011A00003D1176E27F0004717660268576E0027B5
:1011B000121D7F037F0B176E07F0F8470EBF4FEA33
:1011C000976897FAA7F7B7FA87F80F68C7F3120975
:1011D000B9F1000F0EBFC7F3846797FAA7F7B7FA04
:1011E00087F7B84503D1176E27F0004717660268E6
:1011F000976E002708327F037F0B176E07F0F847C2
:101200000EBF4FEA976897FAA7F7B7FA87F80F6803
:10121000C7F31209B9F1000F0EBFC7F3846797FA3D
:10122000A7F7B7FA87F7B84503D1176E27F000473D
:1012300017660268D76E00270C327F037F0B176E8C
:1012400007F0F8470EBF4FEA976897FAA7F7B7FA83
:1012500087F80F68C7F31209B9F1000F0EBFC7F383
:10126000846797FAA7F7B7FA87F7B84508BF176EEC
:1012700000E005E008BF27F000477FF436AF33E712
:10128000176E07F0F8474FEA97687CE791F80C80F3
:101290000F68D2F8B090C7F3120A29EA0A09DFF8FA
:1012A00080A008F018082AFA08F808EA070749EAAF
:1012B0000707C2F8B070CA68A2F18047B7F5FE0709
:1012C0007ED10A68076812EA0A081ABF92FAA2F8E1
:1012D000B8FA88F8C2F3846808F1010808F01F081A
:1012E000B8F1090FC2F3120832D8B8F1000F1ABFD3
:1012F00092FAA2F8B8FA88F8C2F3846808F10108F3
:1013000008F01F0804FA08F80EBFC2F3846492FACA
:10131000A2F4B4FA84F405E00040100400F0FF03E6
:10132000FFFF070004F1010404F01F0448EA84648D
:101330000EBFC2F3846292FAA2F2B2FA82F202F112
:10134000010202F01F0202EB420244EA025230E0C4
:10135000B8F1000F0EBFC2F3846892FAA2F8B8FA8F
:1013600088F808F1010808F01F0804FA08F80EBF11
:10137000C2F3846492FAA2F4B4FA84F404F101048E
:1013800004F01F0448EA84640EBFC2F3846292FA38
:10139000A2F2B2FA82F202F1010202F01F02DFF8B9
:1013A000288102EB420208EB025244EA020242F0B8
:1013B000007205EAD2543C44D1F80880656900E027
:1013C0000AE0C2F3045206FA02F625EA060508FA14
:1013D00002F245EA020262610C683C490C4267D0A5
:1013E0004FF0A041D1F8081304F1705501F0E072FC
:1013F000374915F55F051ABF364DAC4212F4000FA0
:1014000011D0354D04F1605616F52E0608BF12F0C6
:10141000807F38D004F1505616F5F80608BF12F454
:10142000800F3BD044E00468B4F1A04F40D18C68F9
:1014300042F4000224F0E07422438A602749284ADB
:101440000968B1FBF2F101EB4101890000910191C2
:101450002ED0B1F1004F32D20029D8BF002105DDD6
:1014600011F0010102D0009A521E0092019A491C0B
:10147000521C91421CDA009C891C641E641E00945C
:101480009142F8DB14E00468AC4211D08C6842F061
:10149000807224F0E07422438A6009E00468AC4260
:1014A00006D08C6842F4800224F0E07422438A6003
:1014B00080F858C002B01846BDE8F00770470099A0
:1014C000491E0091FCD1F3E7000020FE00000880D7
:1014D000000300501000C090000100507007002071
:1014E000400D030090F858204FF0000C012A04BF73
:1014F0000220704770B49BB0012280F85820026827
:101500000024B2F1A04F0AD0C16D41F02001C165A5
:1015100080F858401BB04FF0010070BC7047274B5B
:1015200000939B689268C3F3800312F0040F08BF16
:10153000002B0BD0C16D41F02001C1654FF0010CB3
:1015400080F858401BB0604670BC70471C4A0D685C
:101550004FF0A043FDB1956890F8386025F46045E0
:1015600045EA46354E6845EA060595609D68D3F81C
:10157000083145EA030313F0010FE1D10B688968D4
:1015800043EA0101936823F01F0323F4706341EAE7
:1015900003019160D4E7916821F4604191609968FA
:1015A000D3F8083141EA030111F0010F02BF91683D
:1015B00021F01F0121F47061C2D1EAE7000100505F
:1015C000000300502DE9F00785B00023019390F847
:1015D00058209C46012A01BF022005B0BDE8F00753
:1015E0007047012480F858400268956815F0040F90
:1015F0000BD0C16D41F02001C165012380F858C0B6
:1016000005B01846BDE8F0077047D1E900650C2722
:1016100007EA95173A44176B05F01F054FF01F08AE
:1016200008FA05F8C6F3846627EA080706FA05F5FE
:101630003D431563026895689668C5F38005C6F357
:10164000C00655EA06074FF004054FF0070658D1CB
:101650008F68B7F1004F5BD0D1F8008005EAD85908
:101660004A44D2F81490C8F3045806FA08FA29EA52
:101670000A0907FA08F749EA070757610268576934
:1016800027F00047576102684F69D2F80C80C8F311
:10169000C1084FEA480807FA08F80F69042F4FD02D
:1016A00002EB8702D1F80090176EDFF8C4A309F0AF
:1016B000F84907EA0A0749EA080847EA080747F02D
:1016C00000471766D0F800800A698F6908EB82022C
:1016D000D2F8608028F0807848EA070717660F7F05
:1016E0000268D1F81080012F0CBF4FF0007700275F
:1016F00002EB8802D2F8608028F0007848EA0707F9
:1017000017660268976817F0010F40F039819FE073
:101710000F684FF0000805EAD7594A44D2F81490F0
:10172000C7F3045706FA07FA29EA0A0908FA07F77D
:1017300049EA070757610268576947F00047A1E780
:10174000176E00277F037F0B176E07F0F8471ABF4D
:1017500097FAA7F7B7FA87F84FEA97680F68C7F3C1
:101760001209B9F1000F0EBFC7F3846797FAA7F704
:10177000B7FA87F7B84503D1176E27F00047176609
:101780000268576E0027121D7F037F0B176E07F04C
:10179000F8470EBF4FEA976897FAA7F7B7FA87F8A6
:1017A0000F68C7F31209B9F1000F0EBFC7F38467C2
:1017B00097FAA7F7B7FA87F7B84503D1176E27F05E
:1017C000004717660268976E002708327F037F0B79
:1017D000176E07F0F8470EBF4FEA976897FAA7F71A
:1017E000B7FA87F80F68C7F31209B9F1000F0EBFF7
:1017F000C7F3846797FAA7F7B7FA87F7B84503D115
:10180000176E27F0004717660268D76E00270C3264
:101810007F037F0B176E07F0F8470EBF4FEA9768FC
:1018200097FAA7F7B7FA87F80F68C7F31209B9F163
:10183000000F0EBFC7F3846797FAA7F7B7FA87F7C9
:10184000B84504BF176E27F000477FF45AAF57E73B
:1018500091F80C800F68D2F8B090C7F3120A29EA09
:101860000A09DFF810A208F018082AFA08F808EAAE
:10187000070749EA0707C2F8B070CA68A2F18047B3
:10188000B7F5FE077CD10A68D0F8008012EA0A0793
:101890001ABF92FAA2F7B7FA87F7C2F384677F1CE0
:1018A00007F01F07092FC2F312072AD8002F1ABF0B
:1018B00092FAA2F7B7FA87F7C2F3846707F1010734
:1018C00007F01F0704FA07F70EBFC2F3846492FA09
:1018D000A2F4B4FA84F404F1010404F01F0447EA0A
:1018E00084640EBFC2F3846292FAA2F2B2FA82F268
:1018F00002F1010202F01F0202EB420244EA02522C
:101900002EE0002F0EBFC2F3846792FAA2F7B7FA57
:1019100087F707F1010707F01F0704FA07F70EBF63
:10192000C2F3846492FAA2F4B4FA84F404F10104D8
:1019300004F01F0447EA84640EBFC2F3846292FA83
:10194000A2F2B2FA82F202F1010202F01F024A4F41
:1019500002EB420207EB025244EA020242F000723A
:1019600005EAD25444448F686569C2F3045206FA0A
:1019700002F625EA060507FA02F245EA020262616A
:101980000C683E490C423FF439AE4FF0A041D1F80B
:10199000081304F1705501F0E072394915F55F053F
:1019A0001ABF384DAC4212F4000F1DD0364D04F171
:1019B000605616F52E0608BF12F0807F47D004F15E
:1019C000505616F5F80608BF12F4800F7FF416AED5
:1019D0000468AC423FF412AE8C6842F4800224F0FA
:1019E000E07422438A6009E60468B4F1A04F7FF4F2
:1019F00005AE8C6842F4000224F0E07422438A6051
:101A00002249234A0968B1FBF2F101EB4101890047
:101A1000019100913FF4F2ADB1F1004F23D20029C2
:101A2000D8BF002105DD11F0010102D0019A521E3C
:101A30000192009A491C521C9142BFF6DFAD019CF5
:101A4000891C641E641E01949142F8DBD6E504688B
:101A5000AC423FF4D3AD8C6842F0807224F0E07465
:101A600022438A60CAE50199491E0191FCD1C5E56E
:101A700000F0FF03FFFF0700000020FE00000880C9
:101A8000000300501000C0900001005070070020BB
:101A9000400D030070B584B04FF0000504002E46E1
:101AA000029502BF012004B070BDE06D28B9204648
:101AB00000F00EF9266684F8586020688168C1F34A
:101AC000407129B1816821F03F0121F020418160FE
:101AD00020688168C1F3007149BB816821F03F0132
:101AE00021F0004141F080518160744874490068E0
:101AF000B0FBF1F002900090C8B1B0F1004F80F05F
:101B0000D7800028D8BF002005DD10F0010002D0EA
:101B10000299491E02910099401C491C884206DA2C
:101B2000029A801C521E521E02928842F8DB2068E4
:101B30008168C1F3007141B9E16D41F01001E165C7
:101B4000216E41F00101216601258168E26DC1F33A
:101B5000800112F0100F08BF002908D0E06D40F09E
:101B60001000E0654FF0010504B0284670BDE16D3E
:101B700021F4807141F00201E165806810F0010FED
:101B800011D14FF0A0408168D0F8080141EA00006F
:101B900010F0010F07D14B486168826822F47C1273
:101BA00042EA01018160E168E06B627F40EA010086
:101BB000A16841EA423140EA010094F8241040EA69
:101BC0000140012904D1218D3F4A02EB41410843E4
:101BD000E16A21B101F47871226B08431043216856
:101BE000CA683A4B1A401043C86020680169626BAA
:101BF00021F0406111430161206881688268C1F36E
:101C00008001C2F3C00211432FD1217F94F8382004
:101C1000890341EA4201C26822F0020222F48042B2
:101C20001143C16020690028206801690AD041F48D
:101C3000803101612068D0F8C01022696FF30D0176
:101C4000114307E021F4803101612068D0F8C01011
:101C50006FF30D01C0F8C01094F8400001280CD0BB
:101C60002068016921F00101016160690128206893
:101C7000016B21F00F0113D10FE0D4E911010843EA
:101C8000D4E91312114340EA0102206801696FF39D
:101C90008A01114341F00101E6E7226A521E114315
:101CA0000163E06D20F0020040F00100E0655BE7B9
:101CB0000298401E0290FCD139E700007007002016
:101CC000400D0300000300500000FEFF0740F0FF3E
:101CD000F0B587B00025414B00950195029503951D
:101CE0000495196800684A1C03243D4F3D494FF490
:101CF0000066B0F1A04F0AD0A0F1A04CBCF5807CEA
:101D00001CBF07B0F0BD1A60012A34D12BE01A6065
:101D1000012A07D1C86C40F40050C864C86C00F4B4
:101D200000500590C86C40F00100C864C86C00F019
:101D300001000590C86C40F00200C864C86C694698
:101D400000F0020005900220CDE900044FF0904021
:101D500000F0BEF9009669463846CDE9014500F02D
:101D6000B7F907B0F0BDC86C40F40050C864C86C47
:101D700000F400500590C86C40F00100C864C86CC5
:101D800000F001000590C86C40F00400C864C86C05
:101D900000F004000590C86C40F00200C864C86CF4
:101DA000694600F0020005908020CDE900044FF064
:101DB000904000F08DF948F21000CDE9000469462A
:101DC0000295094800F084F9009669463846CDE945
:101DD000014500F07DF907B0F0BD0000600700206C
:101DE000000400480010024000080048002804BF1A
:101DF0000120704770B5044690F82100002520B9F5
:101E000084F82050204600F00BF865626560A560FC
:101E1000E56025610120656184F82100002070BD26
:101E2000006881B0A0F18041B1F503311CBF01B061
:101E300070470548816C41F008018164806C00F0B6
:101E40000800009001B07047001002402DE9F047F3
:101E5000044640790D46012804BF0220BDE8F08702
:101E60004FF0010884F8058002202071A86802F074
:101E7000100604284DD14FF0030992B12068406B41
:101E800010F0004F2CD000BF00F048FA012822D9F2
:101E9000206940F00800206184F804900320BDE828
:101EA000F08700F03BFA07462068406B10F4004FC3
:101EB0000AD000BF00F032FAC01B0128E8D8206821
:101EC000406B10F4004FF5D1012000F0EDF82168CF
:101ED000686A08640AE02068406B10F0004FD3D1B4
:101EE000012000F0E1F82168686A48642068816C8C
:101EF00040F2FF32B2409143AA6AB240114381647A
:101F00002068C16CFF22B2409143EA6AB24011439B
:101F1000C164E869012808D12168886B1F22B2409A
:101F200090432A6AB240104388632068C06B07213F
:101F3000B14020EA0101A86910F0010F05D110F0AD
:101F4000020F5AD16869002857D000206B69AA682F
:101F50001A4302434FF48070B04021EA000029790F
:101F600001290CBF4FF48071002111434FF400721E
:101F7000B24090436A79012A0CBF4FF400720022EC
:101F800042EA010920F440472868022818BF0743A5
:101F900035D000BF216809FA06F03843C8632068CD
:101FA00001684FF48042B2409143016021680868A3
:101FB00040F6FE72B2409043EA68B24010430860B7
:101FC00020680168C022B24091430160287B297CCF
:101FD000C0F3830001F03C0140EA811021680A6EE1
:101FE00040F60F73B3409A43B0401043086684F83C
:101FF000048000206071BDE8F0870120A6E700F0B2
:1020000013FD0649884288BF47F40047C2D80449F7
:10201000884288BF47F48047BCE700000068890910
:1020200000B4C404002804BF0120704770B5044602
:102030000079002518B96571204600F007F80220E4
:102040002071256101202071002070BD00B587B08E
:102050000021009101910291039104910068A0F187
:10206000A041B1F500611CBF07B000BD0D48C16CB7
:1020700041F48031C164C16C01F480310591C16CBF
:1020800041F00101C164C06C694600F00100059097
:1020900010200090032001904FF0904000F018F8BD
:1020A00007B000BD0010024070B5044600F036F9DC
:1020B0000546B4F1FF3F02D004484068044400F0F4
:1020C0002DF9401BA042FAD370BD00006407002028
:1020D0000B680022002B08BF70472DE9F84F01263E
:1020E0000325864C0F2700BF0B6806FA02F813EA97
:1020F000080300F0FC80D1F804C0BCF1010F18BF48
:10210000BCF1020F05D0BCF1110F18BFBCF1120FCA
:102110001DD1D0F808904FEA420C05FA0CFA29EAD2
:102120000A09D1F80CA00AFA0CFC4CEA090CC0F818
:1021300008C0D0F804C02CEA080C91F80480C8F359
:10214000001808FA02F848EA0C0CC0F804C0D0F8ED
:102150000C904FEA420CD1F808A005FA0CF829EAD5
:1021600008090AFA0CFA4AEA0909C0F80C90D1F8F1
:102170000490B9F1020F18BFB9F1120F15D14FEA4F
:10218000D20900EB890ADAF820B04FEA42794FEA27
:10219000D96907FA09FE2BEA0E0BD1F810E00EFA06
:1021A00009F949EA0B09CAF82090D0F8009029EA09
:1021B000080891F8049009F0030909FA0CFC4CEAAC
:1021C000080CC0F800C0D1F804C01CF0805F7CD0BF
:1021D000D4F860C04CF0010CC4F860C0D4F860C002
:1021E0000CF0010CCDF800C022F0030C0CF1804C77
:1021F0000CF5803CDCF808804FEA82794FEA1979C7
:1022000007FA09FA28EA0A08B0F1904F08BF4FF020
:10221000000A28D0A0F1904ABAF5806A08BF4FF0B2
:10222000010A20D0A0F1904ABAF5006A08BF4FF029
:10223000020A18D0A0F1904ABAF5406A08BF4FF0E0
:10224000030A10D0A0F1904ABAF5805A08BF4FF0A7
:10225000040A08D0A0F1904ABAF5A05A0CBF4FF07A
:10226000050A4FF0060A0AFA09F949EA0808CCF803
:102270000880DFF88C80D8F800C0D1F804902CEAF0
:10228000030C19F4803F18BF4CEA030CC8F800C0D7
:10229000DFF87080D8F800C0D1F804902CEA030C65
:1022A00019F4003F18BF4CEA030CC8F800C0DFF86F
:1022B0005880D8F800C0D1F804902CEA030C19F427
:1022C000801F18BF4CEA030C00E010E0C8F800C003
:1022D000DFF83880D8F800C0D1F804902CEA030C5D
:1022E00019F4001F18BF4CEA030CC8F800C00B68B3
:1022F000521CD3407FF4F8AEBDE8F88F00100240C6
:102300000004014004040140080401400C040140A1
:10231000002A14BF81618162704700000148806813
:102320007047000064070020024881684268114439
:10233000816070476407002010B50024032000F07E
:102340008BF8042000F008F8002814BF012400F0E6
:1023500025F8204610BD000070B50E4E054600243D
:10236000706898B14FF47A71B1FBF0F00A490968CE
:10237000B1FBF0F000F020FE40B9102D06D2002293
:102380002946501E00F036F8356000E00124204652
:1023900070BD000064070020700700200C4808B5DD
:1023A000016E41F001010166016E01F00101009131
:1023B000816D41F080518165806D00F0805000900A
:1023C000042000F049F8BDE8084000F0B7B800006C
:1023D000001002400028B8BF704700F01F01012222
:1023E00002FA01F14009800000F1E020C0F800117C
:1023F00070470000174B10B41B68C3F30223C3F1EE
:10240000070CBCF1040F88BF4FF0040C1C1D072CF7
:1024100034BF0023DB1E012404FA0CFCACF1010CD8
:102420000CEA0101994004FA03F35B1E1A401143C0
:1024300000284FEA0111A1BF00F1E02080F800144C
:1024400010BC704700F00F0000F1E02080F8141D70
:1024500010BC70470CED00E0074900F007000A6867
:102460004FF6FF031A4042EA002040F0FD7040F0B2
:1024700080600860704700000CED00E02C493222BB
:102480002C4B09684A432C4950B1B0F5007F0868CD
:102490002BD020F4C06040F48060086000207047BA
:1024A000086800F4C060B0F5806FD1F8800020F4B7
:1024B000807002D0C1F88000F0E7C1F880000868A1
:1024C00020F4C06040F400700860B2FBF3F000F14B
:1024D00001004A6912F4806F1CBF0028401EF8D129
:1024E000486910F4806F20D1D8E700F4C060B0F5DF
:1024F000806FD1F8800040F48070DBD1C1F880009B
:10250000086820F4C06040F400700860B2FBF3F08B
:1025100000F101004A6912F4806F1CBF0028401EC0
:10252000F8D1486910F4806FB8D04FF003007047BD
:102530007007002040420F00007000400248816890
:1025400041F4804181607047007000402DE9F843FC
:10255000044600680027AC4D10F4002F6DD0A86D24
:102560004FF0000810F0805F09D1A86D40F0805056
:10257000A865A86D4FF0010800F080500090DFF8CA
:102580008C92D9F8000040F48070C9F80000FFF781
:10259000C5FE0646D9F8000010F4807F0AD100BFBE
:1025A000FFF7BCFE801B022831D8D9F8000010F4D8
:1025B000807FF5D0D5F8900010F440701CBF216CDE
:1025C000814211D0D5F89000D5F8901020F44070D9
:1025D00041F48031C5F89010D5F8901021F4803185
:1025E000C5F89010C5F8900010F0010F16D0FFF755
:1025F00095FE0646D5F8900010F0020F08BF41F294
:1026000088390BD1FFF78AFE801B484501D9032783
:102610000CE0D5F8900010F0020FF3D0D5F8900040
:10262000216C20F440700843C5F89000B8F1000F09
:1026300003D0A86D20F08050A865207810F0010F1D
:1026400007D0D5F88800616820F003000843C5F87A
:102650008800207810F0020F07D0D5F88800A16814
:1026600020F00C000843C5F88800207810F0040F13
:1026700007D0D5F88800E16820F030000843C5F89D
:102680008800207810F0080F07D0D5F8880021695D
:1026900020F0C0000843C5F88800207810F0200F13
:1026A00007D0D5F88800616920F440600843C5F878
:1026B0008800207810F0400F07D0D5F88800A16975
:1026C00020F440500843C5F88800207810F0800FAF
:1026D00007D0D5F88800E16920F440400843C5F8E8
:1026E0008800208810F4807F07D0D5F88800216A00
:1026F00020F440300843C5F88800208810F4007F9B
:1027000007D0D5F88800616A20F440200843C5F856
:102710008800208810F4806F0FD0D5F88800A16A57
:1027200020F440100843C5F88800A06AB0F5801F67
:1027300003D1E86840F48010E860208810F4006F4E
:102740000FD0D5F88800E16A20F440000843C5F8AE
:102750008800E06AB0F5800F03D1E86840F480108B
:10276000E860208810F4805F0FD0D5F88800216BD6
:1027700020F040700843C5F88800206BB0F1807FDE
:1027800003D1E86840F48010E860208810F4005F0E
:102790000FD0D5F88800616B20F040600843C5F881
:1027A0008800606BB0F1006F03D1E86840F48010DE
:1027B000E860208810F4804F0FD0D5F88800A16B16
:1027C00020F040600843C5F88800A06BB0F1006FAE
:1027D00003D1E86840F48010E860208810F4004FCE
:1027E0000FD0D5F88800E16B20F040500843C5F8C1
:1027F0008800E06BB0F1805F03D1E86840F480307E
:10280000E8603846BDE8F8830010024000700040E0
:102810002DE9F0470E4605004FF000087ED0764FB8
:10282000386800F00F00864209D9386820F00F00A0
:1028300030433860386800F00F00B0426ED129682C
:102840006E4C11F0010F41F2883A66D06868DFF8EB
:10285000B091032806D00228206832D010F4806F8F
:102860005CD031E0206810F0007F57D0E06800F0C5
:102870000302E068C0F30310401C032A19D0614A28
:10288000B2FBF0F0E268C2F306225043E268C2F302
:102890004162521C5200B0FBF2F0484520D9A068BA
:1028A00010F0F00F14D011F0020F19D0A86878B111
:1028B00016E0554AB2FBF0F0E268C2F3062250433C
:1028C000E4E710F4003F60D000F0D8F8484507D99D
:1028D000A06820F0F00040F08000A0604FF0800879
:1028E000A068696820F003000843A060FFF716FDA8
:1028F0008146A068696800F00C00B0EB810F0CD035
:10290000FFF70CFDA0EB090050453BD8A0686968B3
:1029100000F00C00B0EB810FF2D100E035E0286848
:1029200010F0020F34D010F0040F03D0A06840F470
:10293000E060A060287810F0080F05D0A06820F4AF
:10294000605040F4E060A060A068A96820F0F0004A
:102950000843A060386800F00F00B04225D93868FD
:1029600020F00F0030433860FFF7D8FC804638680D
:1029700000F00F00B04218D0FFF7D0FCA0EB080029
:1029800050450DD90320BDE8F0870120BDE8F08750
:10299000B8F1800F04BFA06820F0F000DAD1D8E7CA
:1029A000386800F00F00B042E6D1287810F0040F2C
:1029B00005D0A068E96820F4E0600843A0602878AA
:1029C00010F0080F06D0A068296920F4605040EA92
:1029D000C100A06000F052F8A1680C4AC1F30311D5
:1029E000515C01F01F01C8400949086009480068AE
:1029F000BDE8F047FFF7B0BC0020024000100240E5
:102A000000B4C4040024F40000366E01B888000845
:102A100070070020640700200248016841F400218B
:102A200001607047001002400148006870470000D4
:102A3000700700200548064900688968054AC1F307
:102A40000221515C01F01F01C8407047700700204F
:102A500000100240C88800080548064900688968D7
:102A6000054AC1F3C221515C01F01F01C840704703
:102A70007007002000100240C888000818498868C4
:102A800000F00C021748042A08BF70478A6802F059
:102A90000C03154A082B04BF104670478B684FF093
:102AA0000C0C3CEA03031CBF00207047CB6803F00A
:102AB000030CCB68C3F303135B1CBCF1030F14BFFF
:102AC000B0FBF3F0B2FBF3F0CA68C968C2F30622A8
:102AD0005043C1F34161491C4900B0FBF1F070471C
:102AE000001002400024F40000366E01002804BFEC
:102AF000012070472DE9F84305460078FF4F10F09C
:102B0000010F55D0B868F96800F00C0001F003011E
:102B10000C2802D0082820D001E003291DD06868C5
:102B2000B0F5803F22D0B0F5A02F38680CBF40F43C
:102B3000802020F48030386038680CBF40F480304A
:102B400020F480203860686800B3FFF7E7FB044694
:102B5000386810F4003F0ED02AE0386810F4003FC7
:102B600026D06868002800F0208221E0386840F410
:102B700080303860E7E7FFF7D1FB001B642800F2E4
:102B80008481386810F4003FF5D011E0FFF7C6FBF0
:102B90000446386810F4003F0AD000BFFFF7BEFBC0
:102BA000001B642800F27181386810F4003FF5D1F1
:102BB000287810F0020F58D0B86800F00C01F868BF
:102BC0000C2900F0030002D0042911D001E00228F2
:102BD0000ED0E8680028386833D040F48070386040
:102BE000FFF79CFB0446386810F4806F17D020E094
:102BF000386810F4806F03D0E868002800F0D581B1
:102C00007868297C20F0FE4040EA01607860BC488A
:102C10000068FFF7A1FB002840F0C78125E0FFF71F
:102C20007DFB001B022800F23081386810F4806FB1
:102C3000F5D07868297C20F0FE4040EA0160786099
:102C400013E020F480703860FFF768FB04463868B2
:102C500010F4806F09D000BFFFF760FB001B022853
:102C60007ED8386810F4806FF6D1287810F0080FFD
:102C700032D068690028D7F8940016D040F00100DF
:102C8000C7F89400FFF74AFB0446D7F8940010F009
:102C9000020F21D1FFF742FB001B022860D8D7F8B2
:102CA000940010F0020FF5D016E020F00100C7F8F4
:102CB0009400FFF733FB0446D7F8940010F0020F9E
:102CC0000AD000BFFFF72AFB001B022848D8D7F81C
:102CD000940010F0020FF5D1287810F0040F78D08E
:102CE000B86D4FF0000810F0805F09D1B86D40F06A
:102CF0008050B865B86D4FF0010800F0805000902A
:102D0000804E306810F4807F13D1306840F48070BA
:102D10003060FFF703FB0446306810F4807F08D171
:102D2000FFF7FCFA001B02281AD8306810F4807FE5
:102D3000F6D0A868012821D00528D7F890000CBF4C
:102D400040F0040020F00100C7F89000D7F8900090
:102D50000CBF40F0010020F00400C7F8900000E034
:102D600093E0A86841F28836D0B1FFF7D7FA04465D
:102D7000D7F8900010F0020F07D023E0D7F89000AA
:102D800040F00100C7F89000E9E7FFF7C7FA001B21
:102D9000B0427AD8D7F8900010F0020FF5D011E0C9
:102DA000FFF7BCFA0446D7F8900010F0020F09D0E4
:102DB000FFF7B4FA001BB04267D8D7F8900010F0C4
:102DC000020FF5D1B8F1000F03D0B86D20F080509C
:102DD000B865287810F0200F32D0A8690028D7F8FD
:102DE000980016D040F00100C7F89800FFF796FA57
:102DF0000446D7F8980010F0020F21D1FFF78EFAA1
:102E0000001B022841D8D7F8980010F0020FF5D027
:102E100016E020F00100C7F89800FFF77FFA04469B
:102E2000D7F8980010F0020F0AD000BFFFF776FA2B
:102E3000001B022829D8D7F8980010F0020FF5D10E
:102E4000E869E8B3B9683C460C2232EA01017BD05C
:102E50000228206820F08070206019D0E06820F0FF
:102E60000300E060E06820F4881020F08070E060EB
:102E7000FFF754FA0546206810F0007F20D000BF0D
:102E8000FFF74CFA401B022859D90320BDE8F8830C
:102E9000FFF744FA0646206810F0007F09D000BF13
:102EA000FFF73CFA801B0228EFD8206810F0007F63
:102EB000F6D1D5E908016FF00F0202EB011100E035
:102EC00076E00843298E5204490802EB4151AA6A70
:102ED00041EA0221084395F834104FF07E42490838
:102EE00002EB4161084395F82C1040EAC160E168AB
:102EF000054A11400843E060206807E000100240E6
:102F000064070020007000400C809F0140F080703A
:102F10002060E06840F08070E060FFF7FFF9054650
:102F2000206810F0007F43D1FFF7F8F9401B02281A
:102F3000ABD8206810F0007FF6D039E004E02068BC
:102F400010F0007F9CD133E0012808BFBDE8F88372
:102F5000E0682A6A00F00301914226D1696A00F014
:102F6000F0020901103991421FD1AA6A00F4FE4112
:102F7000B1EB022F19D195F82C2000F07841B1EB7C
:102F8000C26F12D1298E00F4C00249084905A1F58B
:102F90000011914209D195F8341000F0C060490841
:102FA0004906A1F10071814202D00120BDE8F883F9
:102FB0000020BDE8F8837047411EB1F1807F24BF37
:102FC000012070474FF0E0204161054AF02182F86E
:102FD000141D00218161072101610020704700005C
:102FE0000FE000E010B5FFF7E6FF10BD90F83C20C1
:102FF000012A04BF0220704730B4012280F83C202F
:10300000CA688B6822F440721A434B6822F48062CB
:103010001A430B6822F400621A430B6922F48052AF
:103020001A434B6922F400521A430B6B22F480427C
:103030001A430B8B22F4702242EA0342DFF860C08D
:103040000368184C634518BFA34204D1CD6922F030
:10305000805242EA0502634518BFA34217D10D8D85
:1030600022F4700242EA05520D6A22F0807242EAAE
:1030700005024D6A22F0007242EA0502634518BF5C
:10308000A34204D1C96A22F0005242EA01025A6402
:103090004FF0000180F83C1030BC0846704700003B
:1030A000002C01400034014090F83C30012B0DBF52
:1030B0000220012380F83C307047F0B41368042BE1
:1030C00020D004DC012B10D0022B15D003E0082BFC
:1030D0001ED0102B23D04FF0000C6346654664468B
:1030E000012922D0022934D046E000254FF0010CFE
:1030F0004FF400730924F3E70125AB024FF0020CF3
:103100000A24EDE70225AB024FF0040C0B24E7E79D
:1031100003254FF0080C4FF480530C24E0E70425FE
:10312000EB024FF0100C0D24DAE701680E6E5768C1
:1031300026EA0C0607FA05F5926805EA0C0C4CEA3B
:10314000060CA2402CEA030C1A4042EA0C020A6662
:1031500012E001684E6E576826EA0C0607FA05F57C
:10316000926805EA0C0C4CEA060CA2402CEA030C0F
:103170001A4042EA0C024A66002180F83C10F0BC7A
:103180000846704790F83C20012A04BF022070478F
:10319000F0B44FF0010C80F83CC0022280F83D20D2
:1031A0000268536894681B4D1B4EAA4218BFB24276
:1031B00004D14F6823F4700347EA030323F070033C
:1031C0000F6823F0007347EA030353600268AA42C2
:1031D00018BFB2F1804F10D0A2F18043B3F58063E5
:1031E0001CBFA2F18043B3F5006306D0B2421CBFFE
:1031F000A2F18043B3F5A03304D1896824F08003A1
:103200001943916080F83DC0002180F83C10F0BC6B
:1032100008467047002C014000340140002804BFDC
:103220000120704710B5044690F83D0028B90020F1
:1032300084F83C00204600F023F8022084F83D008A
:10324000211D206803F08CF9012084F8480084F8DF
:103250003E0084F83F0084F8400084F8410084F880
:10326000420084F8430084F8440084F8450084F860
:10327000460084F8470084F83D00002010BD00009F
:1032800000B587B000210091019102910391049152
:103290000068A0F18041B1F596311CBF07B000BDB8
:1032A0001048016E41F400610166016E01F4006195
:1032B0000591C16C41F00101C164C06C694600F028
:1032C000010005904FF40060009012200190012051
:1032D00002900C2004904FF09040FEF7F9FE07B0EA
:1032E00000BD00000010024000B587B00021009131
:1032F00001910291039104910068A0F18041B1F520
:1033000096311CBF07B000BD0C48C16C41F00101F3
:10331000C164C06C694600F0010005904FF4E060A4
:1033200000900220019002900390062004904FF03C
:103330009040FEF7CDFE07B000BD00000010024037
:103340002DE9F047054690F83C000C4601280DBFDA
:103350000220012085F83C00BDE8F087DFF830C38B
:10336000CC4ECD4FCD49CE4B0C2A00F0C48006DCAC
:103370006AB1042A5ED0082A71D000F083B9102AFD
:1033800000F00681142A00F0408100F07BB9286823
:10339000026A22F001020262026AD0F80480D0F8C8
:1033A0001890D4F800A029F0730929F480394AEA6A
:1033B0000909D4F808A022F002024AEA020288426F
:1033C00018BF984204D060451CBFB042B84207D134
:1033D000D4F80CA022F008024AEA020222F0040209
:1033E000884218BF984204D060451CBFB042B84222
:1033F00007D1636928F4407143EA0101A36943EAF4
:103400000108C0F80480C0F8189061684163026246
:103410002868816941F0080181612868816921F08B
:103420000401816128688169226941EA02018161A0
:1034300000F028B92146286803F0ECF82868816973
:1034400041F4006181612868816921F480618161B2
:1034500028688169226941EA0221E8E7FFE72868D4
:10346000026A22F480720262026AD0F80480D0F804
:103470001C90D4F800A029F0730929F480394AEA95
:103480000909D4F808A022F4007242EA0A2288420C
:1034900018BF984207D1D4F80CA022F4006242EA87
:1034A0000A2222F48062884218BF984204D0604504
:1034B0001CBFB042B84207D1636928F4405141EAC9
:1034C0000311A36941EA0318C0F80480C0F81C90F6
:1034D0006168C16302622868C16941F00801C16185
:1034E0002868C16921F00401C1612868C1692269A5
:1034F00041EA02014AE02868026A22F4805202622C
:10350000026AD0F80480D0F81C90D4F800A029F406
:10351000E64929F0807949EA0A29D4F808A022F47A
:10352000005242EA0A32884218BF984207D1D4F8C2
:103530000CA022F4004242EA0A3222F4804288427D
:1035400018BF984204D060451CBFB042B84207D1B2
:10355000636928F4404141EA8311A36941EA831871
:10356000C0F80480C0F81C90616801640262286899
:10357000C16941F40061C1612868C16921F48061B9
:10358000C1612868C169226941EA0221C16179E00B
:103590002868026A22F480320262D0F820904268E1
:1035A000D0F85080D4F800A028F0700828F48038B3
:1035B0004AEA0808B4F808A029F4003949EA0A4997
:1035C000884218BF984204D060451CBFB042B84240
:1035D00004D122F48031626941EA02224260C0F8DB
:1035E000508061688164C0F820902868016D41F0C6
:1035F000080101652868016D21F004010165286852
:10360000016D226941EA02013BE02868026A22F466
:1036100080120262D0F820904268D0F85080D4F82E
:1036200000A028F4E04828F0807848EA0A28B4F896
:1036300008A029F4001949EA0A59884218BF98429B
:1036400004D060451CBFB042B84204D122F48021AE
:10365000626941EA82224260C0F850806168C164B8
:10366000C0F820902868016D41F400610165286868
:10367000016D21F4806101652868016D226941EACC
:10368000022101654FF0000085F83C00BDE8F0879D
:10369000004001400044014000480140002C01402E
:1036A00000340140002804BF0120704710B50446D3
:1036B00090F83D0028B9002084F83C00204600F036
:1036C00022F8022084F83D00211D206802F048FF06
:1036D000012084F8480084F83E0084F83F0084F814
:1036E000400084F8410084F8420084F8430084F8E4
:1036F000440084F8450084F8460084F8470084F8C4
:103700003D00002010BD704770B5044690F83C00A5
:10371000012804BF022070BD012584F83C5002201E
:1037200084F83D00204602F0BDFF01004FF000008C
:1037300005D084F83D5084F83C00012070BD21681C
:10374000CA6822F04002CA602168CA6822F4804236
:10375000CA6084F83D5084F83C00002070BD90F8A9
:103760007C10012904BF02207047012180F87C10E1
:103770002421C0F8801001680A680B6823F0010357
:103780000B6022F00051002242660368196020217C
:10379000C0F8801080F87C201046704790F87C10AC
:1037A000012904BF0220704710B4012185B080F8C0
:1037B0007C102422C0F8802002681368D2F800C070
:1037C0002CF0010CC2F800C043F000524B074366D6
:1037D00003681A601BA3D3E90023CDE900231BA3D0
:1037E000D3E90023CDE90223426E002A04BFA0F8EA
:1037F0006A10A0F868101AD0026891689268C1F344
:103800004261520F1DF802C04FEACC040DF1080CC2
:103810001CF80220B4FBF2F4A0F86A401DF8012065
:103820001CF80110D200B2FBF1F2A0F868202021B0
:10383000C0F88010002180F87C1005B0084610BC4C
:1038400070470000010101030701000008040204A1
:103850000801010190F87C20012A04BF0220704772
:1038600030B4012384B080F87C302422C0F880205A
:103870000268D2F800C0146824F0010414600268E1
:10388000946824F06064214391601B49D1E90021D0
:10389000CDE90021194AD2E90012CDE90212416EA8
:1038A000002904BFA0F86A30A0F8683016D001687B
:1038B0008A688968C2F34262490F1DF80140E50039
:1038C00002AC615CB5FBF1F5A0F86A501DF802107E
:1038D000A25CC900B1FBF2F2A0F868200168C1F84F
:1038E00000C02021C0F88010002180F87C1004B0B6
:1038F000084630BC70470000443800084C380008C7
:1039000090F87C20012A04BF0220704730B40123C4
:1039100084B080F87C302422C0F880200268D2F87D
:1039200000C0146824F0010414600268946824F054
:103930006044214391601B49D1E90021CDE9002178
:10394000194AD2E90012CDE90212416E002904BFE2
:10395000A0F86A30A0F8683016D001688A688968D3
:10396000C2F34262490F1DF80140E50002AC615C00
:10397000B5FBF1F5A0F86A501DF80210A25CC90071
:10398000B1FBF2F2A0F868200168C1F800C0202164
:10399000C0F88010002180F87C1004B0084630BCCC
:1039A00070470000443800084C380008002804BF65
:1039B0000120704710B50446D0F8800028B90020D7
:1039C00084F87C00204600F029F82420C4F8800008
:1039D0002068016821F001010160204603F018FA17
:1039E000012808BF10BDA06A00281CBF204603F0B4
:1039F00071F92068416821F4904141602068816834
:103A000021F02A0181602068016841F00101016014
:103A10002046BDE8104003F0CAB9000000B587B0E9
:103A20000021009101910291039104910068A0F19D
:103A30008041B1F588411CBF07B000BD0E48816DC3
:103A400041F400318165816D01F400310591C16C53
:103A500041F00101C164C06C694600F001000590AD
:103A60000C20009002200190072004904FF090401D
:103A7000FEF72EFB07B000BD0010024002F098FEDA
:103A8000174C0825D4F82001C06910F0080F07D0A2
:103A9000134803F062FBD4F82001056203F0ECFF49
:103AA000D4F82001C06910F0800F1CBF0C4803F04F
:103AB000FEFBD4F82001C16911F0200FE2D0406A6A
:103AC000C1B2074803F054FB0088012804D0022843
:103AD00008BF03F0D1FFD5E703F0C8FFD2E700002D
:103AE000D0050020012908BF002124D0042908BFE7
:103AF000012120D0102908BF02211CD0402908BF75
:103B0000032118D0B1F5807F08BF042113D0B1F58F
:103B1000806F08BF05210ED0B1F5805F08BF062178
:103B200009D0B1F5804F08BF072104D0B1F5803F1F
:103B30000CBF08210921064A1830525C1044026863
:103B4000044B595C082303FA01F1114301607047EB
:103B5000D0880008DA880008012908BF002124D095
:103B6000042908BF012120D0102908BF02211CD040
:103B7000402908BF032118D0B1F5807F08BF042178
:103B800013D0B1F5806F08BF05210ED0B1F5805F6D
:103B900008BF062109D0B1F5804F08BF072104D026
:103BA000B1F5803F0CBF08210921084B18305B5C40
:103BB0001844D0F800C0064B595C064B8B402CEAE9
:103BC000030302FA01F1194301607047D08800082D
:103BD000DA8800087300010010B50446406802F05E
:103BE00036FBA168086110BD0068012102F099BB95
:103BF000002808BF704710B50446007E012818BF92
:103C000010BD217B0020012904D0022910D00329F6
:103C10001ED026E0A16881F824000121606802F02E
:103C200044FBE28AB4F90E10606802F0BFFA0CE0BF
:103C3000A16881F824000021606802F036FBE28A66
:103C4000B4F91010606802F0B1FA50B1022009E036
:103C5000A168012081F82400A068D4F81210016145
:103C6000F4E70320207610BD01230373C181C282D3
:103C7000037643767047022303730182C2820121D7
:103C80000176002141767047006802F018BB10B53C
:103C9000406802F0F2FABDE8104002F00EBA407E31
:103CA0007047806800687047806840687047027B92
:103CB0000121012A04D0022A07D0032A0AD00FE0EA
:103CC000B0F90E0000280BDA08E0B0F91000002867
:103CD00006DA03E0B0F91200002801DA4FF0FF31F4
:103CE000084670478068C068704780680069704700
:103CF000027B0021012A08BFB0F90E100846704768
:103D0000406802F0AEBA006802F004BB8068B0F907
:103D10001E0070478068D0F81A0070478068D0F89D
:103D2000160070478360C0E9001200210173C18151
:103D30000182C18201767047032202734182091415
:103D4000818201210176002141767047826851828B
:103D500080688182704710B504460068032102F034
:103D6000E0FA00281CBF0121217610BD0068072160
:103D700002F0D7BA406802F09EBA0000014661F333
:103D80000F0044F6E61211FB02F244F6E61311FBB3
:103D900023F10A4411444942C913B1F5004FA8BFA9
:103DA00047F6FF7104DA11F5004FB4BF054909B2B7
:103DB00061F31F4011F5004F04BF48F2010161F3A8
:103DC0001F4070470080FFFF70B50546084600F0B1
:103DD00059F82AB203B212FB03F14FEA254C05143D
:103DE0001CFB05F0081AC0131649B0F5004FA8BF18
:103DF00047F6FF7004DA10F5004FB4BF084600B272
:103E000060F30F04104E10F5004F08BF66F30F0467
:103E100012FB05F01CFB03F21044C013B0F5004F79
:103E2000A8BF47F6FF7103DA10F5004FA8BF01B233
:103E3000204661F31F4011F5004F08BF66F31F4095
:103E400070BD00000080FFFF0180FFFF10B5044639
:103E5000084600F017F814FB00F12214031412FBBB
:103E600003FC61444FEAE13C29466CF30F0114FB6B
:103E700003F312FB00F0C01AC01360F31F410846A1
:103E800010BD00000449034A0A60A0EB822048608C
:103E90008868704740006000000C0240F8B58C460E
:103EA0000446DDE90710069FC4F830C0C4E93001BC
:103EB00008481E4615460090074B084A21466046B2
:103EC000FCF7C0FFE763C4E90D56204600F096FBFF
:103ED000F8BD0000E13E0008E93E0008F545000895
:103EE00010B500F08BFB10BD2DE9F04105468CB0FC
:103EF0000020984614460E468DF804004F0912D053
:103F00007A1E0021284603F0CFFD002808BF0B20B1
:103F100000F05082D5F8C40006F01F0618B17A1ED2
:103F2000002103F0C1FD132E80F04C83DFE806F082
:103F3000BE0AACBDBCBCBBBAB9B8B7B6B5B4BCBCA4
:103F4000BCBCBE00267805208DF80800472E70D036
:103F500028DC0F2E7ED00BDC0F2E6BD2DFE806F0B4
:103F600055929263927A7A7A7A7A7A7A7A7A7A001F
:103F7000172E6FD009DCA6F1100007285AD2DFE80F
:103F800000F072728181696969001D2E5BD004DCCA
:103F9000182E5FD01C2E4ED074E0412E5AD0462EE3
:103FA00061D06FE0652E55D01EDC572E52D00EDC4E
:103FB000542E4FD006DC482E55D04F2E18BF532E0E
:103FC00048D05FE0552E18BF562E5BD142E05B2EE5
:103FD00049D004DC582E18BF592E53D13AE0612E37
:103FE00018BF642E4ED135E0A6F17400152849D2D1
:103FF000DFE800F019393939393948484839394842
:1040000048484848484830303000647831462246B5
:10401000D5F8C40003F048FD22463146284603F097
:1040200043FD00F02ABA62783146284603F03CFD91
:1040300023E218E026E062780021D5F8C40003F0FE
:104040002EFD012019E262780121D5F8C40003F0A9
:1040500026FD7BE16078A17800EB012231462846FD
:1040600003F022FD09E26078A178227900EB0120BB
:10407000E178090401EB026142183146284603F059
:1040800013FDFAE1022095E1217803208DF8080064
:10409000892980F08E810AE0DCE174E25CE24AE288
:1040A00021E2EDE1C3E193E18CE287E11AE28800CD
:1040B000784440688744000024020000BE020000EB
:1040C0002402000024020000BE020000980200004A
:1040D0009802000098020000980200009802000078
:1040E0009802000098020000980200009802000068
:1040F0009802000098020000980200009802000058
:104100009802000098020000980200009802000047
:104110009802000098020000980200009802000037
:10412000980200009802000048020000740200009B
:10413000BE020000980200009802000098020000F1
:1041400024020000FA020000FA020000FA02000055
:10415000FA020000FA020000FA020000FA0200006F
:10416000FA020000FA020000FA020000FA0200005F
:10417000FA020000FA020000FA020000FA0200004F
:10418000FA020000FA020000FA020000FA0200003F
:10419000FA020000FA020000FA020000FA0200002F
:1041A000FA020000FA020000FA020000FA0200001F
:1041B000FA020000FA020000FA0200009802000071
:1041C000FA020000FA020000FA020000FA020000FF
:1041D000BE020000BE020000BE0200009802000005
:1041E00098020000980200009802000024020000DB
:1041F000BE02000098020000980200009802000031
:104200009802000098020000980200009802000046
:104210009802000098020000980200009802000036
:1042200024020000BE020000FA0200009802000012
:104230009802000098020000980200009802000016
:10424000FA020000FA020000980200009802000042
:104250002402000024020000BE020000BE02000092
:10426000BE020000BE020000BE02000024020000E8
:104270009802000098020000BE020000FA0200004E
:10428000980200009802000024020000BE02000014
:10429000BE020000BE020000BE020000BE0200001E
:1042A000BE020000BE020000BE020000BE0200000E
:1042B000BE020000BE02000024020000FA0200005C
:1042C00024020000E4020000E4020000E402000016
:1042D00098020000980200009802000001AA2846F7
:1042E00003F096F800909DF80400002800F0758116
:1042F000D5E90C0C01236A46F02100F040B900BF5B
:10430000D5F8C400002800F05F81002103F076F8A2
:104310008DF80000D5E90C0C01236A46F021E04736
:1043200001208DF804000CB0BDE8F081D5F8C40080
:10433000002800F04981012103F060F88DF80000A9
:10434000D5E90C0C01236A46F021E047012094E0F6
:1043500001AA284603F05CF800909DF804000028AC
:1043600000F03B81D5E90C0C02236A46F021E047BE
:104370000CB0BDE8F08101AA284603F049F800908E
:104380009DF80400002800F02881D5E90C0C0423D6
:104390006A46F021E0470CB0BDE8F08101AA28464A
:1043A00003F036F800909DF804000028EDD100F0ED
:1043B00014B903208DF8080000F006B92178072011
:1043C0008DF80800284602F0BFFF8DF80400FBE0DE
:1043D000002004A902460A54401CC0B22028FAD387
:1043E000002005E00B18401CC0B2DA701D2804D272
:1043F000D5F8C020125C092AF4D1D5F8C010421DAE
:1044000020238A5C8DF81020C21D0930895C8DF84C
:104410001110D5F8C01004AA085C8DF81200D5E977
:104420000C0CF021E04701208DF80400CFE020794A
:104430006179E37800EB012082B22078617800EBAB
:104440000120A178090401EB03610144284602F030
:10445000B3FF12E020796179E37800EB012082B2AA
:104460002078617800EB0120A178090401EB036159
:10447000084401B2284602F0B7FF8DF80400A3E01B
:1044800006A80090217807AB03AA284603F08EFA0D
:10449000BDF91C005449C0EB0010800081FB0010E6
:1044A0008110A1EBE0708DF81000010A8DF8111059
:1044B000010C8DF81210000E8DF81300BDF81800D5
:1044C0008DF81400000A8DF81500BDF80C008DF869
:1044D0001600000A8DF81700D5E90C0C082304AA71
:1044E000F021E04770E0E079227AA37800EB022027
:1044F00082B2607894F804C000EB0320E37821785E
:104500001B0403EB0C63184400EB80004300DFF84E
:10451000DCC00020CCFB03035811A0EBE37003B216
:10452000607994F806C000EB0C2000B20090284699
:1045300003F0DEFBA1E721786078E27801EB002050
:1045400001B2A07800EB022002B2284603F09AFAEA
:1045500001208DF804003AE00C208DF80800049446
:104560008DF81480224904A802F050FF8DF8040051
:1045700050B31F48F02103790268D5E90C0CE047DD
:104580000CB0BDE8F081002004AA04E01154401CE6
:10459000C0B220280DD2D5F8C010095C0029F5D191
:1045A000202838BF002104D21154401CC0B220285A
:1045B000FAD3D5E90C0C2023F021E04701208DF837
:1045C000040004E00120F5E69DF8040028B1002372
:1045D000D5E90C0C1A46F021D1E7D5E90C0C0123E2
:1045E00002AAFF21CBE70000676666668988888893
:1045F0000C00002010B500F001F810BD10B5044605
:10460000006BE16B8847802084F8C800A16B206BA9
:10461000BDE810400847000001480068FFF773BB81
:1046200004000020034603480A4619460068FFF7C5
:104630001BBB00000400002006480078002808BFCB
:10464000704710B500F008F802F0D2FABDE810404B
:1046500003F0ECB90C07002010B50E4C20780128AF
:1046600018BF10BD608800281CBF6088401E02D1A2
:1046700002F05EF901206080A08810B1A088401E81
:10468000A080E088002808BF10BDE088401EE080C0
:1046900010BD00000C07002001480068FFF75BBB5D
:1046A0000400002001480068FFF760BB0400002000
:1046B0002DE9F34F81B05A4801F02EFE594E0024E7
:1046C00006F12C01347058480860A1F108085748D9
:1046D000C8F8000000F066FD04F008F8544800F047
:1046E00072F906F1100B5248CBF8000006F10C05E8
:1046F000504828605048FCF7D3F8DBF800104E4AC9
:10470000286801F0C2FD4D4803F054FCD8F80000C1
:1047100000904B4B494A4B482968FBF79BFE4A489F
:1047200000F051F9494800F04EF905F108094648F2
:10473000C9F8000005F10C0A4448CAF800004448D2
:10474000F06101F0AFFC05F11C0142480860F1691D
:10475000414FC0E94371414800F00AF905F11400E6
:104760003E49016005F124013D48086001F037FC35
:104770000020FCF789FB012087F82400286801F05D
:1047800066FD3861286801F062FD0014B88207F107
:1047900028002F1FA0F12803386005F128012A689E
:1047A000FFF7C0FA286801F062FD3B68014600226D
:1047B0001846FFF759FA0198396801602948DBF873
:1047C00000100160D9F800104160DAF80010C0E96B
:1047D0000214D8F8001001611A4941611649C0E974
:1047E0000614164901622968416205F128018162B7
:1047F00014390968C162F169C0E90C1405F11C01A2
:1048000084630968C0E90F1444648464C464046563
:10481000029908600120307003B0BDE8F08F0000FD
:10482000400700200C0700201C0500205802002033
:1048300028010020AC0100200C030020D40200203D
:1048400034040020E00100205401002080010020F9
:1048500070040020140000206C090020480400208F
:1048600004050020B0090020B0F80031002220F833
:104870001310B0F80031A0F802315B1C9BB2A0F815
:104880000031802B24BF0023A0F800315FF000032B
:1048900030F913C05B1C9BB26244802BF8D3D31752
:1048A00002EB5362D211A0F80421084670470021A0
:1048B0000A4620F81120491C89B28029F9D3A0F8B2
:1048C0000021A0F802217047B0F9040170470000F0
:1048D00008B5FEF7A9F84FF4FA61B0FBF1F0FEF766
:1048E0006BFB0749081FFFF7E3FE03F075FE044B5F
:1048F00004481A1F00900121101F03F015FA08BD8B
:1049000008000020B887000810B504460078002889
:1049100018BF002012D194F8260001F083F9A0F509
:104920007F41FF3907D0218B238A4A1E03FB0200F7
:10493000B0FBF1F02082204600F02CF8E08280B23B
:1049400010BD0021018270470178002918BF808ABC
:1049500001D000B27047018A026A891AB0F91E209C
:10496000808C5143CA1701EB124100EB2140F0E764
:1049700010B50446007820B10020E082608A2082D1
:1049800010BD201D01F03CFA84F826002046FFF7F8
:10499000D8FF10BD018A428B914284BF0820704726
:1049A000828B8A428CBF0020C08A7047B0F92200F7
:1049B0007047B0F906007047408B7047B0F90400AB
:1049C0007047008B7047018881804188C180018CCD
:1049D0004184002181608162704781607047418419
:1049E0007047C180704781807047000070B4B0F993
:1049F0000420002402FB01F6B0F90620B0F914C02F
:104A0000B0F91630002A04BF0021816014D08568F7
:104A10004A43A91805D5002DC4BF002A6FF00041F4
:104A200003E0002DBCBF002A0F49C2688A42A5BF1F
:104A30000269914282608160827F8168057F41FACC
:104A400002F246FA05F52A446245C4BFACEB020403
:104A5000624603DC9342C4BF9C1A1A46214481601B
:104A600070BC10B2704700000100008070B5D0F833
:104A70000C110446C868D1F8161010FB01F210FBA7
:104A80003121C81701EB10400514D4F8100103F0D0
:104A9000D7F9D4F8081148434FF4167190FBF1F0A0
:104AA000684300EB40000849400081FB0010811082
:104AB000A1EBE071C81701EB104001142046BDE8DE
:104AC0007040FFF7D1BE000067666666C16908479F
:104AD00070B50446002511B1012908D017E000F097
:104AE00012F9B4F85200A4F8440080B90BE0B4F80D
:104AF0004400002808BF012509D0401E0004000C16
:104B0000A4F8440003D1216920468847012528469E
:104B100070BD4268104730B4038E0AB253430A1482
:104B2000B0F850104A435200524202EB030CA2EB81
:104B300003030CEBDC7C03EBD3735FEA6C0C4FEAF2
:104B400063034FEA910153D5002B18DA042280F851
:104B50003A20ACEB0302D41702EB943201EBA241F2
:104B6000DA1703EBD23201EB62434FEAEC720CEB43
:104B7000D232A1EB624CA0F83CC0C1876CE0002AA5
:104B80001BDC4FF0030C80F83AC0A2EB030C4FEA99
:104B9000EC740CEB943C01EBAC414FEAE37C03EB8F
:104BA000DC334FEAE27C01EB634302EBDC32A3EB44
:104BB000624CA0F83CC0C38717E0022380F83A306B
:104BC000ACEB0203DC1703EB943301EBA3414FEA98
:104BD000EC730CEBD333A1EB634CD31702EBD33262
:104BE0000CEB62438387A0F83EC0A0F8401052E06F
:104BF000002B17DB012280F83A20ACEB0302D4171C
:104C000002EB943201EBA241DA1703EBD23201EB53
:104C100062434FEAEC720CEBD2328387A1EB624C19
:104C2000C18736E0002A1ADC052380F83A30ACEB65
:104C30000203DC1703EB943301EBA3414FEAEC735F
:104C40000CEBD333A1EB634CD31702EBD332818748
:104C50000CEB6243A0F83EC0A0F840301BE04FF0E0
:104C6000000C80F83AC0A2EB030C4FEAEC740CEB9A
:104C7000943C01EBAC414FEAE37C03EBDC3301EB0A
:104C800063434FEAE27C02EBDC328187A3EB624CA8
:104C9000C387A0F840C00029D8BF002189B241864F
:104CA000002BD8BF00239AB28286BCF1000FD8BF78
:104CB0004FF0000C1FFA8CF3C386B0F84EC0BCF165
:104CC000010F02D0816930BC0847B0F948C0BCF17F
:104CD000000FB0F854C0CCBF6144A1EB0C01418679
:104CE000B0F94A1000291FFA8CF1CCBF1144511AB7
:104CF0008186B0F94C1000291FFA8CF1CCBF194401
:104D0000591AC186DEE781680847C16808474169CA
:104D100008470000816882B021F03F0121F0204166
:104D200081608168C1F3007141BB816821F03F015E
:104D300021F0004141F0805181603149314A0968D8
:104D4000B1FBF2F101910091C1B1B1F1004F52D22A
:104D50000029D8BF002105DD11F0010102D0019A20
:104D6000521E0192009A491C521C914206DA019B84
:104D7000891C5B1E5B1E01939142F8DB816821F068
:104D80003F0121F0404141F0004181608168C90F3D
:104D9000FCD1016811F0010F0BD1816821F03F01B6
:104DA00021F0004141F001018160016811F0010F23
:104DB000F3D0816821F03F0121F0004141F008016A
:104DC0008160816821F03F0121F0004141F0200124
:104DD0008160C16821F4001121F0004141F400110B
:104DE000C160816821F03F0121F0004141F00401E0
:104DF000816002B070470199491E0191FCD1BDE765
:104E000070070020400D030090F8701091B9416FB9
:104E100091F8BA20022A0DD10A6AB1F8AC10916259
:104E2000416F4A6AB1F8AE109162426F916AB2F86E
:104E3000B0208A62012180F86E1046307047416FC1
:104E400089684A6C42F480624A64012180F86F10DC
:104E500080F87010463070472DE9F0470446406FE7
:104E60000026D0E90185D0F80090E66526666666E2
:104E700084F86C60286A20F0550020F4A060286255
:104E8000514961605149A1618021A4F86A10042749
:104E900084F86D70204684F83A7000F0A5FD4C4807
:104EA000696801407029FBD1D9F8080020F03F0063
:104EB00020F0004040F00800C9F80800D8F80800C9
:104EC00020F03F0020F0004040F00800C8F8080043
:104ED000606F04F16C0304F1380190F8BB202846A0
:104EE00003F03AFC204600F045FD84F86C60394838
:104EF000606084F86D6084F83A60204600F074FDCC
:104F0000606F04F16C0304F1380190F8BB2028466F
:104F100003F022FC204600F02DFDE06D3049000931
:104F2000E065206E00092066606E000960662A4810
:104F300060602A48A0610A7805F1180002EB000CB5
:104F4000DCF8008001F10A02082392F8009003FACD
:104F500009F928EA0908CCF8008091F802C08444D5
:104F6000DCF8008092F8029003FA09F928EA0908AF
:104F7000CCF80080097908440168127903FA02F23A
:104F800091430160B4F868006863B4F86800A863EE
:104F9000B4F86800E86301212846FEF7A3FD10215C
:104FA0002846FEF79FFD4FF480712846FEF79AFDD4
:104FB000296A40F255500843286284F83A7084F810
:104FC0007060BDE8F087000005510008CD5700086B
:104FD000700000025D510008E54F0008015800080C
:104FE000D088000870B490F83AC0436F4C2404EBAA
:104FF0008C049A681C592568642404EB8C041B59A2
:105000001C68536823F0700323F0007353603C4A1C
:10501000530CBCF1060F64D2DFE80CF01D404003D6
:10502000031DD0F85CC0ACEB050C1CF5004FD8BFDD
:105030000A8005DDBCF5004FACBF0B80A1F800C0B5
:10504000D0F860C0ACEB040C1CF5004F45DDBCF59E
:10505000004F3DDA43E0D0F860C0ACEB050C1CF526
:10506000004FD8BF4A8005DDBCF5004FACBF4B8078
:10507000A1F802C0D0F864C0A4EB0C0CB1F9024056
:10508000ACEB040CBCF5004FA8BF0B8029DA1CF573
:10509000004FD4BF0A80A1F800C022E0D0F85CC065
:1050A000ACEB050C1CF5004FD8BF0A8005DDBCF544
:1050B000004FACBF0B80A1F800C0D0F864C0A4EBD7
:1050C0000C0CB1F90040ACEB040CBCF5004F01DB5B
:1050D0004B8006E01CF5004F01DC4A8001E0A1F89E
:1050E00002C00A88A0F848204A88A0F84A200A8806
:1050F000498811444942A0F84C1070BC7047000028
:105100000180FFFF30B490F86D40426F4FF04C0CBF
:105110000CEB840C936852F80CC0DCF800C06425DA
:1051200005EB8404125912685C6824F0700424F0C2
:1051300000745C6090F86C30102B0AD2C36D63442D
:10514000C365036E1A44026690F86C20521C80F806
:105150006C2000200880488030BC704710B4436F3A
:1051600090F86DC0642404EB8C0C9A6853F80C30F2
:105170001B68D2F804C02CF0700C2CF0007CC2F834
:1051800004C090F86C20102A07D2426E1A4442667E
:1051900090F86C20521C80F86C2000200880488019
:1051A00010BC70472DE9F04F0546406F8DB0D0E937
:1051B0000B13D0E9032AD0E90687D0F814900093A6
:1051C000436B0293836B0193D0E9004B8668606860
:1051D00020F00400606004202060636823F0200356
:1051E000636020232360DBF804C02CF0040CCBF8B0
:1051F00004C0CBF80000DBF8040020F02000CBF85E
:105200000400CBF800308B48A6F18043B3F5963309
:1052100003690CBF43F4006343F4005303618AB194
:10522000106818B1036843F001030360506818B1B7
:10523000036843F001030360906818B1026842F00C
:1052400001020260BAF1000F17D0686F90F8BD201C
:10525000012A18BF002904D0B0F8B620C06B00F0B6
:105260000BFBDAF8000040F00100CAF80000DAF8A1
:10527000000040F00040CAF80000B9F1000F18D05B
:10528000686F90F8BE1001291CBF0099002904D056
:10529000B0F8B620006C00F0EFFAD9F8000040F04A
:1052A0000100C9F80000D9F8000040F00040C9F83A
:1052B0000000B8F1000F18D0686F90F8BF100129F6
:1052C0001CBF0299002904D0B0F8B620406C00F051
:1052D000D3FAD8F8000040F00100C8F80000D8F870
:1052E000000040F00040C8F80000A7B1686F90F8D7
:1052F000C01001291CBF0199002904D0B0F8B820C2
:10530000806C00F0B9FA386840F001003860386805
:1053100040F000403860A06810F0010F08D120462E
:10532000FFF7F8FC40202060606840F040006060BB
:10533000DBF8080010F0010F04BF5846FFF7EAFC45
:1053400034464FF47A700290306820F001003060EB
:10535000706820F0700020F000707060012130460D
:10536000FEF7C0FB10212046FEF7BCFB4FF4807116
:105370002046FEF7B7FB4FF480512046FEF7B2FB04
:10538000606940F001006061686F90F8C110022907
:1053900003D095F8461099B126E090F8C210012983
:1053A00004BF90F8BB00032811D14FF00100206327
:1053B000606940F0010060614FF00300206306E087
:1053C00090F8BB00012802D0032805D00CE0B5F806
:1053D0006800401E606207E001202063606940F0C1
:1053E00001006061032020636FF080002061686F1E
:1053F00090F8BC00002818BF6FF480710DD02069B0
:10540000C0F3002000281CBF0298002805D02161AD
:105410000298A0F101000290F1E7E06840F08000FE
:10542000E060216A40F2555041EA000020620DB070
:10543000BDE8F08F002004E0002190F86F300A46AC
:10544000012B04BF022180F86F2090F86E30012BF1
:1054500004BF41F0400180F86E200846704700000C
:1054600070B50546406F846895F84700012818BF5D
:1054700070BD602201212046FEF76EFB206A40F0DD
:1054800001002062686F90F8BA00012804BF206A0A
:1054900040F0040005D0022804BF206A20F0040078
:1054A00000D12062B5F868004008606360221021D6
:1054B0002046FEF751FB206A40F010002062686F22
:1054C00090F8BA00012804BF206A40F0400005D0DF
:1054D000022804BF206A20F0400000D12062B5F805
:1054E00068004008A06360224FF480712046FEF7F8
:1054F00033FB206A40F480702062686F90F8BA0035
:10550000012804BF206A40F4806005D0022804BF4F
:10551000206A20F4806000D12062B5F8680040085D
:10552000E06306486860064868610648E860064827
:10553000A860002085F8470070BD0000E54F000816
:10554000375B0008E95900087559000870B5054631
:10555000406F846895F84700002840D160220121FF
:105560002046FEF7F9FA206A40F001002062206A26
:1055700020F00400206200206063686F90F8BA0099
:10558000012802D002280DD019E010221146204631
:10559000FEF7E2FA206A20F010002062206A40F054
:1055A00040000BE0202210212046FEF7D5FA206AA9
:1055B00040F010002062206A20F04000206270223B
:1055C0004FF480712046FEF7C7FA206A20F48070FD
:1055D0002062206A20F480602062286EE865064818
:1055E0006860064868610648E8600648A8600120CF
:1055F00085F8470070BD0000795600088157000803
:10560000C15600087559000870B50446406F7022F5
:105610008568012084F87800B4F868004843000CDD
:1056200060864FF480512846FEF796FAB4F8680079
:10563000B4F85610401A2864B4F85800E863608E35
:105640006863686820F0700020F0007040F070001F
:105650006860032084F83A0068680649084018BF6B
:105660000120218F012918BF70BD01200021218751
:1056700070BD000070000002426F9268536823F012
:10568000700323F00073536090F83A304FF0640CCD
:10569000426F0CEB8303D2581268006E801A074ADF
:1056A0009042D8BF104605DD47F6FF729042A8BF72
:1056B00047F6FF7008804880704700000180FFFFB8
:1056C00010B4426FD2E901C11368012280F878203A
:1056D000D41E0C610A6912F0010FFBD00C6101228B
:1056E0004A63B0F86820521F0A640A6912F0010F79
:1056F000FBD0CA6842F00102CA604A6C42F4806280
:105700004A644A6C42F400424A64426F92F8BA40DA
:10571000022C1ED1096A40F255542142116AB2F896
:10572000AC200BD08A61426F516AB2F8AE208A6118
:10573000426F916AB2F8B0208A620AE08A62426FD0
:10574000516AB2F8AE208A62426F916AB2F8B02014
:105750008A62032180F83A10986820F03F0020F018
:10576000004040F008009860DCF8080020F03F009E
:1057700020F0004040F00800CCF8080010BC704752
:10578000416F0122896880F8782000224A63921EC6
:105790000A610A6912F0010FFBD04A6C42F4004220
:1057A0004A64416F91F8BA20022A18BF70470A6A0A
:1057B000B1F8AC109161426F516AB2F8AE208A62C2
:1057C000416F886AB1F8B0108162704790F86D102F
:1057D00080F83A10B0F86810438E491E8AB2416FC3
:1057E00089684B63838E8B63C08EC8630A64486884
:1057F0000249084018BF01207047000070000002F5
:1058000030B4446FB0F86820818FB4F8B2C0531A36
:105810009BB2634506D9042180F83A1091B2491E23
:1058200089B217E0C58F4D1BADB2B5EB430F84BFF6
:10583000B4F8B420891A0CD8614489B2914209D3D2
:105840004FF48072A0F86A20B0F86820C1EB4201E2
:10585000491E89B2A268438E5363838E9363C08EC0
:10586000D063116450680349084018BF012030BC60
:105870007047000070000002C0F3035301EB830384
:1058800082B0D3F808C06FF30F1C4CEA02029A6092
:105890004A6800F003031A434A6000F01002012036
:1058A00090400A68324B30EA020C304A2AD0D1F8D4
:1058B00000C04CEA000008601068B0FBF3F0C000C4
:1058C0000190009004BF02B07047B0F1004F40D289
:1058D0000028D8BF002005DD10F0010002D001999A
:1058E000491E01910099401C4A1C9042A4BF02B07D
:1058F00070470199801C491E491E01919042F8DBB6
:1059000002B070471068B0FBF3F010EB400001905C
:10591000009004BF02B07047B0F1004F1FD20028C2
:10592000D8BF002005DD10F0010002D00199491E0A
:1059300001910099401C4A1C9042A4BF02B07047DC
:105940000199801C491E491E01919042F8DB02B06A
:1059500070470198401E0190FCD102B07047019839
:10596000401E0190FCD102B070470000700700207B
:1059700080841E00416F8968CA6822F00102CA60F3
:10598000002380F842304A6C22F400424A6490F8C6
:105990007020012A1BD0426F92F8BAC0BCF1020FEE
:1059A00015D1D2F820C0B2F8AC20CCF82820D0F81D
:1059B00074C0DCF82420BCF8AEC0C2F828C0D0F80F
:1059C00074C0DCF82820BCF8B0C0C2F828C06FF062
:1059D000010CC1F810C00A6912F0010FFBD0C1F828
:1059E00010C080F87830704710B4416F0122896888
:1059F00080F87820002280F84220B0F86820520811
:105A00004A63B0F8682052088A63B0F868205208E8
:105A1000CA63B0F86820521F0A646FF001030B617B
:105A20000A6912F0010FFBD00B614A6C42F48062EC
:105A30004A644A6C42F400424A64426F92F8BAC027
:105A4000BCF1020F29D1D1F820C040F255541CEA14
:105A5000040FD2F820C0B2F8AC200FD0CCF8182038
:105A6000D0F874C0DCF82420BCF8AEC0C2F818C06E
:105A7000426F906AB2F8B02082610EE0CCF8282024
:105A8000D0F874C0DCF82420BCF8AEC0C2F828C03E
:105A9000406F826AB0F8B00090620B61C86840F055
:105AA0000100C86010BC704770B4416FD1E9003488
:105AB000D1E902C1D1B1DA6C002AFCD190F83A20C8
:105AC00001EB8205EA682AB1ED6B166826F486764A
:105AD0003543156090F83A2001EB8202516A29B1F2
